:1080000000400020050701003B0701003D0701007B
:108010003F07010041070100430701003907010044
:108020003907010039070100390701004507010040
:108030004707010039070100490701004B0701000C
:10804000E1880000F5BD0000510701005307010061
:108050005507010057070100B9E300005B07010065
:10806000D9FE0000F9BD00006107010063070100AF
:1080700041C2000067070100690701006B070100AA
:108080006D0701006F070100710701007307010010
:108090007507010077070100790701007B070100E0
:1080A000B1B400007F0701008107010083070100D0
:1080B00085070100870701000000000000000000A4
:1080C00000000000000000000000000000000000B0
:1080D00000000000000000000000000000000000A0
:1080E0000000000000000000000000000000000090
:1080F0000000000000000000000000000000000080
:1081000010B5054C237833B9044B13B10448AFF3D1
:1081100000800123237010BD240C0020000000000B
:10812000DC83010008B5064B1BB106480649AFF3D6
:1081300000800648036813B1054B03B1984708BD9A
:1081400000000000DC830100280C0020240C00202B
:1081500000000000154B002B08BF134B9D46A3F5F4
:10816000803A00218B460F461348144A121A08F031
:1081700071FE0F4B002B00D098470E4B002B00D008
:1081800098470020002104000D000D48002802D06F
:108190000C480BF0EBF808F007FB2000290008F072
:1081A000A3F808F0F1FA00BF00000800004000202A
:1081B0000000000000000000240C00209C2D002086
:1081C0006D33010029430100204AD36A03F4705340
:1081D000B3F5805F35D0B3F5005F04D0B3F5006F21
:1081E00004D11B4B00E01B4B18687047D36803F4A5
:1081F000E063B3F5007F16D008D8B3B1B3F5807F44
:108200001DD1154B154AD86C154B12E0B3F5806F94
:108210001AD0B3F5A06F04D0B3F5407F0FD1114849
:10822000704711487047114870470B4B104AD86C83
:10823000104BB0F1985F34BF1046184670470020CD
:1082400070474FF4004070470B48704700800C4067
:108250000401002000010020B081E00FC0CF6A00BF
:1082600040B56400809FD500003FAB01C0D8A70097
:1082700040420F00804F1200406F400108B5FFF7E9
:10828000A3FF044B5B6803F00F03D840024B186058
:1082900008BD00BF00800C40DC2C002070474FF46C
:1082A00000407047014B1868704700BF0001002074
:1082B000FEE700000A494B6803F00702032A0CD8C6
:1082C000DFE802F00202070723F0070343F001038F
:1082D00003E023F0070343F003034B60704700BF44
:1082E00000000C40104A10B5104C11490244A24243
:1082F0004B680BD803F00702023A012A23F0070368
:1083000094BF43F0030343F001030BE0094A90429A
:1083100008D803F00702023A012A23F0070398BFA6
:1083200043F002034B6010BDFFDB0BFFFF23F400A3
:1083300000000C400024F400431EB3F5004F10B5BC
:10834000044603D304488721FFF7B2FFB4FA84F44C
:10835000E0B2C0F11F0010BD50620100034B5A6D26
:10836000D20702D41A6D1042FCD1704700800C4035
:10837000012810B5044604D90F4840F27711FFF7E1
:1083800097FF0E4B6400986AE04000F0030002285B
:1083900007D0032809D001280BD1BDE81040FFF712
:1083A0007EBFBDE81040FFF77DBFFFF767FF4008C5
:1083B00010BD002010BD00BF5062010000800C40C5
:1083C000C0F30313013B10B50C46032B00F29A8057
:1083D000DFE803F002152E644B1EB3F5007F04D3D3
:1083E0004C4840F21A31FFF763FF2046FFF7A4FF25
:1083F000494B9A6822F00F021043986010BDB1F506
:10840000007F04D9434840F22231FFF751FFFFF7C4
:1084100051FF2046FFF790FF3F4B5A6822F00F02B2
:1084200010435860FFF72AFFBDE81040FFF75ABF1E
:108430003A4B984204D003F50433984214D029E013
:10844000B1F5004F04D9334840F25131FFF730FF06
:108450000420FFF783FF2046FFF76EFF2E4B9A6E36
:1084600022F00F02104313E0B1F5004F04D9294860
:1084700040F25F31FFF71CFF0420FFF76FFF20463B
:10848000FFF75AFF244B9A6E22F0F00242EA0010E6
:10849000986610BD1F4840F28B3136E0204B984261
:1084A00004D003F50433984213D027E0082904D9F7
:1084B000184840F29531FFF7FBFE4020FFF74EFFD2
:1084C0002046FFF739FF144B1A6F22F003021043C6
:1084D00012E0082904D90F484FF46971FFF7E8FE4C
:1084E0004020FFF73BFF2046FFF726FF0A4B1A6F9D
:1084F00022F0300242EA0010186710BD054840F231
:10850000B23102E003484FF46E71BDE81040FFF74E
:10851000CFBE00BF5062010000800C403004080054
:1085200040051400C0F30323013B70B50D46052B35
:1085300010D8DFE803F016190306090C0023124CCB
:1085400014E00123114C11E01023114C0EE0002324
:10855000104C0BE0104840F20D41BDE87040FFF7B1
:10856000A7BE00230D4C01E00D4C0023C0F30436E0
:1085700013B11846FFF7F2FE04F1047406EBC406CB
:10858000B600356070BD00BF40800C4058800C4084
:1085900060800C4078800C405062010008800C40E4
:1085A00044800C4000F00F00013808B503282ED895
:1085B000DFE800F002141E341A4BDB6A03F4705338
:1085C000B3F5805F08D0B3F5005F29D0B3F5006F35
:1085D0000CBF0420052008BD032008BD114B986A7C
:1085E00000F0030002281CD003280ED0012808E068
:1085F0000C4B9B6A03F00C03082B11D00C2B04D0FE
:10860000042B0CBF0320012008BD062008BD06482E
:1086100040F25551FFF74CFE002008BD072008BD71
:10862000022008BD00800C405062010000F4781068
:10863000B0F5202F08B53CD019D8B0F5802F2FD039
:1086400009D8002852D0B0F5003F57D1FFF7BCFD44
:108650002F4B9B682AE0B0F5C02F25D0B0F5002F36
:108660004CD10020FFF784FE294B9B6E1EE0B0F535
:10867000B01F2CD00DD8B0F5901F23D0B0F5A01F9F
:108680003CD10120FFF774FE214B1B6F03F0030365
:1086900016E0B0F5C01F22D0B0F5D01F35D02DE0C8
:1086A000BDE80840FFF7EABD00200CE003F00F032F
:1086B00006E00020FFF75CFE154B9B6EC3F303132F
:1086C000D84008BD0120BDE80840FFF751BE012099
:1086D000FFF74EFE0E4B1B6FC3F30113F0E70D487F
:1086E000FFF760FF072810D0082803D1BDE8084035
:1086F000FFF76ABD08484FF4B07102E0064840F247
:10870000B741FFF7D5FD002008BD044808BD00BFF4
:1087100000800C400400180050620100809FD500CA
:1087200010B504280FD8DFE800F00906181503007B
:108730001020202313E04020802310E04FF48070AD
:108740004FF400730BE00C4840F2F671BDE81040A6
:10875000FFF7AEBD0120022301E004200823074CEF
:1087600029B1206222B1E26A1342FCD000E0236208
:10877000BDE8104000F02CBA5062010000800C40AF
:1087800010B500F00F04012C03D055D3032C26D9CB
:1087900052E00239032909D8DFE801F00C0F020585
:1087A000022004460BE00320012408E0264840F2A2
:1087B000C65144E00020042401E0012003240121EB
:1087C0000A46FFF7ADFFFFF775FD204B5C6200F036
:1087D000FFF9FFF753FDBDE81040FFF783BD0139F6
:1087E000052917D8DFE801F01A030A16161101212E
:1087F00000200A46FFF794FF022310E00120014603
:108800000246FFF78DFF012309E0114B01221A6098
:10881000032304E00C484FF4C26110E000230B4A2C
:10882000022C916A0BBF21F0030121F00C010B43D4
:1088300041EA8303936210BD034840F27261BDE8D0
:108840001040FFF735BD00BF5062010000800C40B2
:10885000080890432DE9F041DFF880800401D8F842
:1088600008C0069D079F089EA4441AB9D8F80C803A
:10887000444400E06446DCF80CC0BCF1000F01D0B9
:108880008CF8082057B1D4F808C0CCF3816CBCF147
:10889000030F1CBF06FA0CFC674427603DB1A768B4
:1088A000BF0F032F1CBF06FA07F7ED1965600125FE
:1088B00005FA00F0094D0BB1A86100E0E8610AB1CA
:1088C000686300E02863A36823F47F5323F0370331
:1088D0000B4343EA0616A660BDE8F08100200C4079
:1088E0001A4B1B4A41F20C0112682DE9F0415F5806
:1088F000174000D5FEE7D3F83880022607EA0805BE
:108900000024EDB1EB0718D50121A1400F4B114A0E
:108910009B68116003EB0413DB6873B1197AD3F819
:1089200000C081F001021A72BCF1000F05D00031C5
:10893000204618BF01215A68E0476D080134E0E77E
:10894000013E27EA0805DBD1BDE8F08100200C409C
:1089500000300C4008300C402DE9FF410728044648
:108960000F46164698460B9D04D9104840F2CD118B
:10897000FFF79EFCB5F5806F04D30C484FF4E77108
:10898000FFF796FC0A9B20460193CDF80080334602
:10899000029501213A46FFF75DFF012303FA04F433
:1089A000034B9C6204B0BDE8F08100BF6662010029
:1089B00000200C40072838B504460D4604D9154858
:1089C00040F2C521FFF774FC25B9124840F2C621D8
:1089D000FFF76EFC104BAA68996801EB0411CA609E
:1089E00029780122A24009B19A6300E0DA636A683B
:1089F00004F5886143F82120084B6A78234432B19A
:108A0000012202FA04F4044841F2080144509B0098
:108A10001A6038BD6662010000200C406080E110E1
:108A2000072870B505460E46144604D9114840F291
:108A30001231FFF73DFC24B90E4840F21331FFF725
:108A400037FC0D4B0EB19B6800E0DB682279E178C2
:108A5000920442EA8132217803EB0515A37860780D
:108A6000890741EA037141EA806141EA03631343E4
:108A7000AB6070BD6662010000200C400F4B01200E
:108A8000C3F880000E4BFF2200215960DA615A6260
:108A9000DA625A63DA63D86441F20C0209489950E9
:108AA00041F2080298500A4602F58861013200201E
:108AB000082A43F82100F7D1704700BF00E100E029
:108AC00000200C40FF00008010B5044620B9124879
:108AD00040F2EB31FFF7ECFB237923B10E4840F273
:108AE000EE31FFF7E5FB01210C48FFF71BFDFFF717
:108AF000C5FF0B4B0122C3F880211A60094B41F2DC
:108B00000C024FF00041995062689A60227852013D
:108B100042F001025A6010BD6662010000130400B9
:108B200000E100E000200C401A4B45F60E02D3F89D
:108B30008400C3F88420184A00F00100128802F46F
:108B4000AA71196202F47051B1F5805F06D0B1F5D7
:108B5000005F08D0B1F5006F10D109E0D96A0906AD
:108B6000FCD5032108E0D96A8905FCD5042103E07E
:108B7000D96A0907FCD50221064B5962D30702D4F2
:108B8000044B02221A6218B1024B0022C3F884205F
:108B9000704700BF00800C40400C0020094B0A4A7F
:108BA000DB6A9BB21380094A116941F0040111612B
:108BB00030BF08B1FFF7B8BF5B0501D4FFF75EBB5C
:108BC000704700BF00800C40400C002000ED00E02A
:108BD000024BDA6A024B1A80704700BF00800C40DB
:108BE000400C002038B5114B054698420C4604D085
:108BF0000F484FF48171FFF75BFB0A236B606378CA
:108C000022781B0143EA0263A2781343E27812043C
:108C100002F4F81213432279120202F4FE421343C3
:108C200062790AB143F008032B6038BD0020004090
:108C30009262010038B5394B044698420D4604D083
:108C400037484FF49771FFF733FBAA780823636026
:108C5000062A44D8DFE802F0040D192A43433900FC
:108C6000636B304923F0FE43486823F4FE034968F0
:108C700013E02C49636B486823F0FE4323F4FE03A2
:108C800000F0FE40034349681BE0636B254923F075
:108C9000FE438868896823F4FE0301F07F0143EAFC
:108CA0000143C0F3062143EA016317E01D49636BEA
:108CB000886823F0FE4323F4FE0300F0FE40896839
:108CC000034301F4FE010B4308E0164B616BDB68C4
:108CD00021F4FE0103F07F0341EA034363636978F3
:108CE0002B78090541EA03716B680B4343EA0242A2
:108CF000EB7842EA03136A7A0AB143F08073AA7AE6
:108D00000AB143F004032A7A0AB143F00203EA7A73
:108D10000AB143F00103236138BD00BF00200040C9
:108D200092620100B081E00F0A2343604FF4F81211
:108D30000023C36003610260436140F203330362B6
:108D400040F24773C363104B426B596822F4FE42F2
:108D500001F4FE4122F07F020A43596801F07F01CD
:108D60000A434263426B59685B6822F0FE4203F09B
:108D70007F0322F4FE0242EA0342C1F3062342EAE1
:108D800003624263704700BFB081E00F08B528B9A5
:108D90000748FFF74BFC002808BF0120054B00F5F2
:108DA000742000F23F20B0FBF3F00138C0B208BDE0
:108DB0001081020040420F000528F8B505460C4618
:108DC00016461F4601D80F2903D919489621FFF7E7
:108DD0006FFA072C17490CD8A0000F238340854059
:108DE000D1F8002122EA030343EA0500C1F800019B
:108DF0000DE0A4F1080080000F2383408540D1F8E6
:108E0000042122EA030343EA0500C1F804010A49E8
:108E10000123214403FA04F4064B89000E60C1F8D3
:108E20008070C3F81C419DF81830C1F80031F8BDBE
:108E3000A862010000600040400883100528F8B5D2
:108E400005460C4616461F4601D80F2903D922486D
:108E5000CB21FFF72DFA76B101232422A34037B1AD
:108E60006A4302F1804202F5C042136103E002FB53
:108E700005F11A4A535024226A43072C02F180421A
:108E800002F5C0420AD8A3000F21994006FA03F365
:108E9000506820EA01010B4353600CE004F180416B
:108EA000083989000F238B4006FA01F1906820EA07
:108EB0000303194391606EB90122242302FA04F4DA
:108EC0005D432FB105F1804505F5C0452C61F8BD26
:108ED000024B5C51F8BD00BFA86201001460004065
:108EE000036CDB0702D4436C1942FCD170470000CD
:108EF00070B504460D46164622B918484FF48471E1
:108F0000FFF7D6F99DB9164B9C420AD003F5806352
:108F10009C4208D0BDE8704010484FF49A71FFF7AA
:108F2000C7B9104800E01048FFF780FB05466D0107
:108F3000B5FBF6F5203DED0047F6F8739D4204D9E8
:108F4000064840F24111FFF7B3F947F6F8762E4094
:108F500020460421FFF7C4FFE66070BDBF62010038
:108F6000004008404005140040151600164B70B52F
:108F7000984204460D4608D003F58063984204D019
:108F800012484FF4E671FFF793F920460221FFF7EC
:108F9000A7FF0A236360666C002EFCD101232364C3
:108FA00023682A7B23F01C0313436A7B2046134368
:108FB000AA7B696813432360AA68FFF799FF2B789F
:108FC0006360266470BD00BF00400840BF620100BE
:108FD000104B10B59842044608D003F580639842C0
:108FE00004D00D4840F2F311FFF762F9636C002BD7
:108FF000FCD101222264EA22626040F2F97223600D
:10900000E36023616361A3636263E3636365236475
:1090100010BD00BF00400840BF6201002DE9F041D3
:1090200007460D46984616461AB930488C21FFF778
:109030003FF91DB92E48FFF7F9FA0546B8F1200FA0
:1090400013D003D8B8F1000F07D028E0B8F1400FD3
:1090500013D0B8F1600F1AD021E0B6EB151F24D958
:109060002248B221FFF724F91FE0B6EBD50F1ED935
:109070001E48B721FFF71CF919E00624B5FBF4F3ED
:109080009E4217D91948BC21FFF712F912E0B6EB3E
:10909000950F0ED91548C121FFF70AF909E01348C9
:1090A000C721BDE8F041FFF703B9102402E008240E
:1090B00000E004247443AD0005EB5405B5FBF4F463
:1090C000043C0C4BA4019C4203D90848D621FFF76D
:1090D000EFF83A68074B22F060023A603A682340A2
:1090E00048EA02023A607B61BDE8F081D862010083
:1090F00010810200C0FF1F0070B506460D461446E1
:1091000022B90F484FF4DA71FFF7D2F81DB90D48B4
:10911000FFF78CFA0546631E03EB4505B5FBF4F437
:10912000A401403C084B24F0FF029A4204D90448B1
:1091300040F2E311FFF7BCF8044B2340736170BDAC
:10914000D862010010810200C0FF1F0000FF1F0055
:1091500038B50C4B044698420D460CD003F580639D
:10916000984208D003F58063984204D006484FF433
:109170000071FFF79DF8EB4303F005035B00E3602C
:10918000E56038BD00C00040D8620100124B10B548
:10919000984204460CD003F58063984208D003F54A
:1091A0008063984204D00D4840F22D31FFF780F8DB
:1091B00040F6AA63E36041F2050200232360626087
:1091C00041F6F972A3606361E364A264024A6365D5
:1091D000944208BF236510BD00C00040D862010062
:1091E00038B5124B044698420D460CD003F5806307
:1091F000984208D003F58063984204D00C4840F2AE
:109200002621FFF755F82046FFF7C0FF2A8A6B7B1F
:1092100020461343EA89696813436360AA682B7B7D
:10922000FFF7FCFE2B78E36038BD00BF00C00040B4
:10923000D862010038B5194B044698420D460CD04F
:1092400003F58063984208D003F58063984204D008
:10925000134840F26121FFF72BF82046FFF796FFF5
:109260002B8AAA7B216843F00103002A9BB20CBF22
:1092700000224FF480620B43134323602B7B204674
:1092800043F4805363606968AA68FFF735FF6B7B1E
:109290000BB11023E3602B78E36038BD00C00040C1
:1092A000D862010003695A06FCD5416303699B0635
:1092B000FCD5C069C0B27047F8B504461F461646D3
:1092C0002AB91448DB21BDE8F840FEF7F1BF036876
:1092D00023F440730360036843EA0723036019B96A
:1092E0000D48FFF7A3F901460C4BA1EB8601DD5DAC
:1092F00023686E439B07B1FBF6F500D53DB1B5F58C
:10930000007F05D30348F721FEF7D2FF00E00125D7
:109310002561F8BDF462010010810200F0620100D5
:109320000F4B70B5984205460C4604D00D4840F2EC
:109330001D11FEF7BDFF00236B6362780A4B05F138
:1093400004762B6382F0010273015A602846237B66
:109350006168A268FFF7B0FF23787601336070BDC3
:1093600000A00040F4620100CFFF01000023036071
:109370000361436183614363014B0363704700BF33
:10938000CFFF0100F8B5A04B984226D09F484FF47C
:10939000B871FEF78DFFFC201DE0598041881A71DD
:1093A0000288C8064AD5120A02F0060242F0F0020C
:1093B0009549012018704A6248601978944A092931
:1093C00040F01F8190480021416392F9010001287B
:1093D00008BF5170587840B2F8BD8D4B98681E7820
:1093E00059881A79884FBC6A3D4614F4C06F0CD076
:1093F000A505874859801A7101D5FD2203E064054F
:1094000040F1FC80FE224270F8E0082E00F2F2806B
:109410000FF2040C5CF826F09B9300004B940000C4
:1094200093940000B1940000E394000007950000BD
:10943000559500007F950000D795000002F0FE02D0
:109440008F0748BF42F00102B2E7260600F1848090
:10945000640601D4012049E040253D6345886A4CFB
:10946000EE0606D51A7102221A70027859806262DD
:10947000A3E7AF0740F181801A7100EBC2021289A5
:109480005980012A4FF00701197096D108226260B5
:1094900093E7260660D4640601D4022026E0402427
:1094A0003C63448814F0020F14BF0326052699E795
:1094B000598041881A710288C80643BF120A02F017
:1094C000060242F0F00202F0FE024F074FF00401E4
:1094D00019704D4948BF42F00102012048604A62BC
:1094E0006BE7260638D4640604D40420187059802B
:1094F0001A7162E740243C63448867073DD51A71BE
:10950000598007227BE000EBC20425898D4218D8E0
:109510004188013201F00404A4B2D2B214B1002196
:1095200003265FE711F0010106D05C801A71082262
:109530001A700221344A41E0012A7FF653AF598064
:10954000F4E71A716268481C515C2F4A58805162D6
:10955000062254E026060AD51A71802259802A6311
:10956000FF225A7008221A7002226A6025E76406F8
:1095700001D40620BAE740243C63052632E70726DB
:109580005980A106224D1E701A717FF516AF00EBAF
:10959000C20211896C881C488C42C06903D252688F
:1095A000661C6E8010555888174A884208D30129D6
:1095B00004BF082151600821197002215160FCE6A6
:1095C0000424012954603FF4F8AE013988427FF445
:1095D000F4AE0821F2E708201A71E20518705980EC
:1095E0007FF5EBAE084A4FF480711163084A0921F8
:1095F0001170E2E61A71FB2259805A7009221A7022
:10960000DBE60120E7E600BF00A00040F4620100B5
:10961000480C00201E4B70B5984205460C461E466D
:1096200004D01C4840F2E921FEF742FE24B9194853
:1096300040F2EA21FEF73CFEB54226D1AB68DE07D8
:1096400044BF20236B606388980701D52289E2B16B
:10965000590701D5238AC3B10F4B002201211A718A
:109660001A705A809C605970094BC0225A609A6ADD
:109670000748920648BFDA69084ABDE870401A6395
:109680004FF4FC625A63FFF77DBE6FF0030070BDBC
:1096900000A00040F4620100480C0020CFFF010050
:1096A000034B1A6AD20702D45A6A1042FCD170479F
:1096B00000000840012838B504460D4602D811F0D4
:1096C0007F4F03D00848A621FEF7F2FD14B1012C0C
:1096D00003D038BD0220054C01E0054C0420FFF703
:1096E000DFFF256038BD00BF0A63010008000840A5
:1096F0000C00084010B504460120FFF7D1FF4FF0E1
:1097000086431C6010BD0000437810B504780BB18F
:1097100044F0020483780BB144F004040120FFF705
:10972000BFFF014B1C6010BD00000840044B41F618
:109730007132DA639A6822F001029A60704700BFC2
:1097400000000C4010B5044618B909483E21FEF748
:10975000AFFD084B1A6902F03F0222709A69DB697B
:1097600002F0F002C3F303131343637010BD00BF94
:1097700036630100D0FF0FE0F7B5002840F08F807E
:10978000484E3078830700F18B8006F0A7F806F08A
:109790009FFA0A25FF20013D06F06AF815F0FF0543
:1097A000F8D12846294606F055FA0128044601D08A
:1097B000002460E04FF47A7006F0ACFA08204FF411
:1097C000D57106F047FA012835D1FF2006F050F890
:1097D00001AF78550135042DF7D19DF80630012BE6
:1097E000E6D19DF80730AA2BE2D106F09DFA28B108
:1097F00006F09AFA01460028DAD107E0A9204FF0D6
:10980000804106F027FA0028EFD1F1E73A2006F070
:1098100021FA0028CCD10446FF2006F029F838555B
:109820000134042CF8D19DF8043013F0400F0CBF24
:1098300004240C241FE02946A92006F00BFA012875
:109840009ABF0224A925254606F06EFA014660B1AA
:1098500006F06AFA0028ABD110204FF4007106F030
:10986000F9F9002818BF002405E0284606F0F2F9AF
:109870000028E9D1ECE70C4B1C8006F017F834B156
:10988000337823F00103337006F032FA05E006F076
:109890004BF8337843F001033370307800E0012057
:1098A00003B0F0BD08010020540C002010B9024B99
:1098B00018787047012070470801002038B50D4620
:1098C0001C461146002833D193B31B4B1B78DA0793
:1098D00030D41A4B1B881B0758BF4902012C0DD1ED
:1098E000112006F0B7F9E8B928464FF4007106F0E8
:1098F00007F9D0F1010438BF002413E0122006F06C
:10990000A9F978B928464FF4007106F0F9F828B1A2
:10991000013C14F0FF0405F50075F3D10C20002183
:1099200006F098F905F0C2FF201C18BF012038BDD1
:10993000042038BD032038BD08010020540C00204D
:1099400070B50D4616461C46002840D1002B3ED06F
:10995000224B1B78D8073CD459073CD4204B1B889A
:109960001A0758BF7602012C0DD11820314606F097
:1099700071F930BB2846FE2106F014F9D0F101043C
:1099800038BF00241DE013F0060F03D097202146B6
:1099900006F060F91920314606F05CF988B92846CE
:1099A000FC2106F0FFF828B1013C14F0FF0405F596
:1099B0000075F4D10020FD2106F0F4F8002808BF5E
:1099C000012405F073FF201C18BF012070BD042086
:1099D00070BD032070BD022070BD00BF08010020D3
:1099E000540C0020F0B5154685B0002840F0E38007
:1099F000734B1A78D20700F1E0800E2900F2D48070
:109A0000DFE801F008134B4FD2D2D2D210D29DA181
:109A1000A3AFBF0005F052FF08B90124C7E005F06D
:109A200045FFC3E001221A70C0E00920002106F0C2
:109A300011F904460028F0D16846102106F060F8BC
:109A40000028EAD09DF800309DF808209B09012BE2
:109A50009DF8093004D103EB022301339B021AE085
:109A60009DF807109DF80A00890001EB92129DF8FD
:109A7000061003F0030301F0030102EB81229DF8BD
:109A80000510013201F00F0101EBD01101EB43038E
:109A9000073B02FA03F32B6089E04FF400732B803D
:109AA00084E0484E318801F0040189B2D9B18D209B
:109AB000002106F0CFF80028AFD1FF2005F0D8FE36
:109AC0006846102106F01CF80028A6D03024FF209C
:109AD000013C05F0CDFE14F0FF04F8D19DF80A30EA
:109AE00010221B09D5E7092006F0B4F8002894D10C
:109AF0006846102106F004F800288ED034889DF8BE
:109B00000A2004F00204A4B29DF80B3064B19DF861
:109B10000D1002F03F02DB0903EB42038909013318
:109B200001398B402B6041E003F003015B0903EB3B
:109B3000C103C2F38402013302FB0333ABE7214BC1
:109B40001B882B7032E0092000E00A20002106F07B
:109B500081F800287FF461AF2846102105F0D0FF7E
:109B60001DE03A20002106F075F800287FF455AF7B
:109B70000446FF2005F07CFE28550134042CF8D162
:109B800014E08D20002106F065F800287FF445AF31
:109B9000FF2005F06DFE2846402106F003F8D0F1C5
:109BA000010438BF002402E0042400E0002405F092
:109BB0007DFE204602E0042000E0032005B0F0BD59
:109BC00008010020540C002010B500239CB2A242D2
:109BD00003D0CC5CC4540133F8E710BD036930B541
:109BE00001F10902002B35D043690024185D2028BB
:109BF00008D0052804F1010408BFE520082C02F86C
:109C0000010BF3D1187A20280DD010462E2400F82D
:109C1000044BDD1D013215F8014F202C03D002F852
:109C2000014B8242F7D1D87A0872987FDC7F00041A
:109C300040EA04601C7F20435C7F40EA0420086007
:109C40005C7E187E40EA04208880D87D9B7D43EAB4
:109C50000023CB800023137030BD2DE9F041056B4C
:109C600004468D420E4602D10020BDE8F081037902
:109C700013B9002EF8D01FE000F1340841464078B7
:109C80002A460123FFF75CFE10B10120BDE8F081F8
:109C9000226A636A207113449D42EAD2E778012F59
:109CA000E7D9236A60781D4441462A460123013FD3
:109CB000FFF746FEFFB2F2E7607804F13401324666
:109CC0000123FFF7FBFD0028DFD12663BDE8F0810B
:109CD00010B504460A46407804F134010123FFF729
:109CE000EDFD80BB94F8323294F8332243EA02222D
:109CF000174B12B29A4228D194F86C2094F86D3028
:109D0000120442EA036294F86A301A4394F86B3002
:109D100042EA03220F4B22F07F429A4216D094F877
:109D2000880094F88920000440EA026094F88620B4
:109D3000104394F8872040EA022020F07F40C01AA8
:109D400018BF012010BD032010BD022010BD00BFB0
:109D500055AAFFFF464154002DE9F041154602681F
:109D60001378303B9BB2092B05D854783A2C02D19A
:109D70000232026001E0B64B1B78002B40F05681A6
:109D8000B44B1C680C60002C00F05381237873B135
:109D90006078FFF78BFDC60709D4002D00F04C81D9
:109DA00010F0040F0CBF00200A20BDE8F081002055
:109DB00020706070FFF7E0FCC10700F1408115B131
:109DC000420700F13F8120460021FFF781FF012873
:109DD00018D194F8F63113B90D20BDE8F08194F84C
:109DE000FC6194F8FD31360446EA036694F8FA31D2
:109DF00020461E4394F8FB3146EA03263146FFF71E
:109E000067FF00E00026032800F01F810028E3D14F
:109E100094F8402094F83F3043EA0223B3F5007FE2
:109E2000DAD194F84B0094F84A3053EA00200DD16F
:109E300094F85A0094F85B30000440EA036094F808
:109E40005830184394F8593040EA032094F84450AD
:109E500020626B1E012BE570BED894F84110A170F2
:109E60000029B9D04B1E0B42B6D194F8453094F876
:109E7000462043EA022213072281ADD194F84870AC
:109E800094F8473053EA07230DD194F8563094F8EC
:109E900057701B0443EA076394F854703B4394F8EB
:109EA000557043EA072394F8438094F8427057EAC8
:109EB000082891D005FB00FC08EB12176744BB4251
:109EC0008AD3DB1BB3FBF1F3002B85D040F6F57191
:109ED0008B4206D94FF6F575AB428CBF03250225A0
:109EE00000E001250233374406EB0801032DE3614E
:109EF000E762616213D1002A7FF46EAF94F86220AA
:109F000094F86310120442EA016294F860109B0016
:109F10000A4394F8611042EA0122A26210E0002A8A
:109F20003FF45AAF022D4FEA430218BFD2186144E2
:109F300018BF03F00103A1620CBF134603EB5203E9
:109F400003F2FF13B0EB532FFFF446AF4FF0FF3394
:109F50002361032D4FF00003E3605AD1637194F83D
:109F6000652094F86430607843EA022232446261EA
:109F700004F134010123FFF7A1FC002849D194F832
:109F8000323294F8332243EA0222334B12B29A421D
:109F90003FD194F8362094F83730120442EA036235
:109FA00094F834301A4394F8353042EA03222B4BAC
:109FB0009A422ED194F81A2294F81B32120442EAE3
:109FC000036294F818321A4394F8193242EA0322D1
:109FD000234B9A421DD194F8223294F823221B0479
:109FE00043EA026394F82022134394F8212243EABF
:109FF0000223E36094F81E3294F81F221B0443EA04
:10A00000026394F81C22134394F81D2243EA0223AE
:10A010002361144A00201388257001339BB22071FC
:10A020001380E3802063A061BDE8F0810B20BDE8D0
:10A03000F0810C20BDE8F0812846BDE8F0810320C6
:10A04000BDE8F0810A20BDE8F0810120BDE8F08183
:10A05000560C00205C0C002055AAFFFF52526141B3
:10A0600072724161580C002008B568B103785BB189
:10A07000C3888B4208D14078FFF718FC10F0010F1D
:10A080000CBF0020032008BD092008BD38B5002101
:10A090000446FFF7E2FD0346002B50D12278032A45
:10A0A00045D16279002A42D0236304F134010025AE
:10A0B000CD540133B3F5007FF9D1552384F8323202
:10A0C000AA2384F83332522384F8343084F83530AC
:10A0D000612384F8363084F81B322369412284F8E6
:10A0E000372084F81A22C3F3072284F81C3284F83C
:10A0F0001D221A0C1B0E84F81F32E36884F81E22FE
:10A10000C3F30722722084F8203284F821221A0C2B
:10A110001B0E84F8180284F8190284F8222284F8AD
:10A120002332607862690123FFF70AFC6571002120
:10A1300060780A46FFF756FC003018BF012038BD92
:10A14000C3690239023B99423DBF8278C36A02FB70
:10A150000130002070470129F8B504460D4661D949
:10A16000C36999425ED20378022B2AD0032B3AD0DE
:10A17000012B54D18EB206EB5606416AB6B201EB02
:10A180005621FFF76AFD002849D1C6F30803616A2A
:10A190000136B6B22344204601EB562193F83470C1
:10A1A000FFF75BFD00283AD1C6F30806344494F863
:10A1B0003400EB0747EA00204CBF0009C0F30B0056
:10A1C000F8BD416A01EB1521FFF747FD38BB6D0073
:10A1D00005F4FF7563192C4493F8343094F8350076
:10A1E00043EA0020F8BD416A01EBD511FFF735FDC8
:10A1F000A8B9AD0005F4FE75631993F8370093F81C
:10A20000362034335B78000640EA02402C4440EAB2
:10A21000032094F83430184320F07040F8BD4FF01C
:10A22000FF30F8BD0120F8BD70B504460D46E18051
:10A230008168012901D1022070BD0368DA69914269
:10A24000F9D271B91A78032A01D1996A49B9002261
:10A25000E2601A89AA42EED99B6A03EB15132361C7
:10A2600019E09E783601B5420ED32068FFF773FFE0
:10A27000431C014618D00128DDD92368DB699842C8
:10A28000D9D2AD1BADB2EEE7E1602068FFF758FF11
:10A2900000EB15102061236805F00F0503EB451353
:10A2A00034336361002070BD012070BD0129F8B511
:10A2B00004460D46164673D9C369994270D2037895
:10A2C000022B3BD0032B4AD0012B65D18FB207EB79
:10A2D0005707416ABFB201EB5721FFF7BEFC0028C8
:10A2E0005BD1C7F3080315F001052344F2B206D091
:10A2F00093F8341001F00F0141EA0212D2B2013793
:10A30000616A83F83420BFB201232371204601EB38
:10A310005721FFF7A2FC00283FD1C7F308072744C5
:10A3200015B1C6F3071606E097F83430C6F30326D6
:10A3300023F00F031E4387F834602EE0416A01EBDF
:10A340001521FFF78AFC40BB6D0005F4FF7563190A
:10A3500083F83460C6F3072683F835601DE0416A50
:10A3600001EBD511FFF779FCB8B9AD0005F4FE7526
:10A37000631993F83720120602F070421643C6F3B1
:10A38000072283F8346083F83520320C360E83F8C8
:10A39000362083F8376000E0022001232371F8BDE6
:10A3A0000220F8BDF8B505460F4631B9C6686EB152
:10A3B000C3699E4228BF012609E0FFF7CCFE0128B1
:10A3C0003BD9EB69984239D33E4600E0012634463A
:10A3D000EB6901349C4204D3012E01D80020F8BD62
:10A3E000022428462146FFF7B6FE48B1411C02D19F
:10A3F0004FF0FF30F8BD01281FD0B442E8D1EDE79F
:10A40000284621466FF07042FFF750FF98B947B9D0
:10A410002B69EC605A1C0CD0013B2B6101236B7142
:10A4200007E0284639462246FFF740FF0028EFD0D4
:10A4300001E02046F8BD0128DAD00120F8BD2DE961
:10A44000F843C68804460136B6B20F4616B9042052
:10A45000BDE8F8830369002BF9D016F00F085CD132
:10A46000C16801330361006819B90389B342EED9A9
:10A4700053E08278013A12EA16124ED1FFF76BFED2
:10A480000128054602D80220BDE8F883421C02D10B
:10A490000120BDE8F8832068C3699D4237D3002FAF
:10A4A000D5D0E168FFF77EFF054600283ED00128A1
:10A4B000E9D0431CECD020680021FFF7CEFB002838
:10A4C000E6D12368343300271F540130B0F5007FF4
:10A4D000F9D1D4F8009029464846FFF731FEC9F873
:10A4E00030002368FAB2997891420DD901221A718D
:10A4F00020680021FFF7B1FB01370028C8D123688D
:10A500001A6B01321A63ECE7196B8A1A1A63E56059
:10A5100020682946FFF714FE20612368E68003EBDC
:10A520004813343363610020BDE8F8830720BDE899
:10A53000F88300002DE9F0410B7804462F2B0D46DF
:10A5400001D05C2B02D10135002301E003689B6937
:10A55000A3602B781F2B35D820460021FFF764FE1F
:10A5600000236361BDE8F08100228B5C501C2E2B20
:10A5700085B23ED02F2B41D1202B0D448CBF202300
:10A580002423F37220460021FFF74EFE30B92068E5
:10A590002169FFF762FB002800F09380A369DB7A52
:10A5A000002800F0A780042840F0C28013F0200F9C
:10A5B00003F0040300F0A3800022A2606261002B7C
:10A5C00040F09A802B7829462F2B05F10105F9D010
:10A5D0005C2BF7D0A66900232022F25401330B2B09
:10A5E000FAD10B782E2BBFD0002003460827024655
:10A5F00016E0022A62D0B3540246B6E75C2BBBD009
:10A60000202B5BD8B8E72F2B28D05C2B26D02E2B05
:10A610000CD1082F52D192003846D2B20B272B46CC
:10A620005D1CCB5CADB2202BEDD815E0B84245D215
:10A6300013F0800F06D0DFF8FCC0803B1CF803301D
:10A6400042F00302DFF8F08018F801CFBCF1000FF0
:10A650001DD09C45F8D131E0042300E0002368B30D
:10A6600030780D44E52804BF05203070082F04BF62
:10A670009200D2B202F00300012802F00C0208BFDF
:10A6800043F01003042A08BF43F0080379E7A3F15D
:10A69000410CBCF1190F02D842F0020208E0A3F10C
:10A6A000610CBCF1190F03D8203B42F00102DBB270
:10A6B00000F1010C33541FFA8CF0B0E70620BDE81E
:10A6C000F081626913789BB1D37A1E070BD4A76916
:10A6D0000346D15C0133FE1816F8016C8E4202D19C
:10A6E0000B2BF6D15AE720460021FFF7A8FE4DE7D5
:10A6F000042053E7590708D50020BDE8F081002B5E
:10A7000014BF04200520BDE8F0816369DA7AD2061F
:10A710000BD5597D1A7D42EA0122D97E9B7E43EA00
:10A72000012343EA0243A3604CE70520BDE8F08122
:10A73000BDE8F0815E6301004E63010038B5002181
:10A740000446FFF771FD054618BB20682169FFF735
:10A7500084FA0546E8B963691B78E52B05D023B177
:10A7600020460121FFF76BFEEDE720682169FFF726
:10A7700074FA054668B960692B460022C254013359
:10A78000202BFAD10B22A169FFF71EFA23680122C0
:10A790001A71284638BD10B504230446216991B1C9
:10A7A0002068FFF75AFAA8B963691A788AB1E52ACE
:10A7B00002D0DB7A1B070FD520460021FFF73FFEB2
:10A7C00040B90346EAE7184633B100222261184631
:10A7D00010BD04200346F8E710BD012970B50446FA
:10A7E0000D4622D9C36999421FD2E3699D4205D221
:10A7F00020462946FFF7AFFC064608B9002070BD89
:10A80000012812D0411C0ED0204629460022FFF715
:10A810004DFD58B923695A1C03D00133236101232C
:10A8200063713546E1E7012070BD022070BD000074
:10A8300038B50C4680B9094A1368154603B118703B
:10A8400014B10023237004E0607808212246FFF74A
:10A85000C9F82C60002038BD0B2038BD5C0C0020EE
:10A860002DE9F0418CB0002305460CA840F82C1DC2
:10A870002B60174602F01F0605A902F01E02FFF723
:10A880006BFA02AB0B9318B905A80199FFF752FEBA
:10A890000A9C10B9002C08BF062017F01C0F44D0EA
:10A8A00048B1042802D105A8FFF748FF46F0080682
:10A8B0000A9C30B16DE0E37A13F0110F68D17B0789
:10A8C00062D437073AD505F039FA227D677DC0F3A7
:10A8D0000723E17E42EA0727A27EA073E373030CFD
:10A8E000000E23746074002342EA01220598E3728B
:10A8F00023776377A377E377A376E376237563758E
:10A9000052EA07474FF00103037117D03946D0F8D8
:10A910003080FFF762FF00283BD10598013FC760F8
:10A920004146FFF79AF948B133E0002831D1E37A84
:10A93000D8062BD4B90701D5DA0729D43307059BEC
:10A9400048BF46F020061A6BAE71EA612C62227D88
:10A95000617DE07E42EA0121A27E42EA002242EAD3
:10A9600001422A61A27FE17F120442EA0162217F53
:10A9700000200A43617F2B60DB8842EA0122EA6003
:10A98000A860A861AB8004E0082002E0042000E099
:10A9900007200CB0BDE8F0812DE9F84F9A4600235E
:10A9A0000446AAF800300F460068A1881546FFF754
:10A9B0005BFB002840F0AC80A379180600F1A4806E
:10A9C000D90740F1A480E268A368D31A9D4243D915
:10A9D0009DB241E0A368C3F30802002A40F08180E1
:10A9E000206890F802B00BF1FF3B0BEA532B1BF0F1
:10A9F000FF0B34D0D4F8009061694846FFF7A0FB04
:10AA0000002838D05FEA552800EB0B0645D099F8AE
:10AA100002300BEB08029A42C4BFCBEB03081FFACB
:10AA200088F85FFA88F399F8010039463246FEF754
:10AA300045FFA37900284DD15B0621D44FEA482673
:10AA4000B6B2A368AD1B3344A360BAF800303744F4
:10AA50003344AAF80030ADB2002DBBD151E00BB9A0
:10AA6000206902E06169FFF776FB012803D9421CE7
:10AA70002FD06061BEE7A37963F07F03A37143E049
:10AA8000A369981B4045D9D207EB402004F124016B
:10AA90004FF40072FFF798F8D0E7A269B2421FD0D6
:10AAA000A37904F1240813F0400F0AD0012399F888
:10AAB00001004146FEF744FFA37958B923F0400353
:10AAC000A37123684146587832460123FEF7F6FE0B
:10AAD00030B1A37963F07F03A3710120BDE8F88F43
:10AAE000A661A1683846C1F30801C1F50076B6B287
:10AAF000B54238BF2E46214424313246FFF764F870
:10AB00009FE72846BDE8F88F0220BDE8F88F0720B0
:10AB1000BDE8F88F2DE9F84F994600230446A9F8BF
:10AB200000300F460068A1881546FFF79DFA0028FF
:10AB300040F0BF80A37918065CD4990740F1B88033
:10AB4000E368DD4228BF002536E05FEA552800EBC8
:10AB50000A067AD09BF802300AEB08029A42C4BF78
:10AB6000CAEB03081FFA88F89BF801003946324601
:10AB70005FFA88F3FEF7E4FE002876D1A369991BFB
:10AB800041450BD204F1240007EB41214FF4007240
:10AB9000FFF71AF8A37923F04003A3714FEA482680
:10ABA000B6B2A368AD1B3344A360B9F80030374494
:10ABB0003344A9F80030ADB225B3A368C3F308024B
:10ABC000002A5AD1206890F802A00AF1FF3A0AEA56
:10ABD000532A1AF0FF0A1ED17BB9216921B9FFF768
:10ABE000E1FB0146206169B10129A37910D163F02D
:10ABF0007F03A3710220BDE8F88F6169FFF7D2FBE4
:10AC00000146F0E7A368E26893424AD9E36048E06E
:10AC10004A1C2BD06161A3795B060CD5214651F803
:10AC2000243BA26958780123FEF78AFEA379E8B98C
:10AC300023F04003A371D4F800B061695846FFF7D0
:10AC40007FFA002881D1A379D1E7A369B34213D059
:10AC5000A268E3689A420FD29BF8010004F1240134
:10AC600032460123FEF72AFE30B1A37963F07F0359
:10AC7000A3710120BDE8F88FA661A0683946C0F332
:10AC80000800C0F50076B6B2B54238BF2E46204463
:10AC900024303246FEF798FFA37943F04003A371B6
:10ACA0007FE7A379002043F02003A371BDE8F88F6C
:10ACB0000720BDE8F88F38B50446A1880068FFF783
:10ACC000D3F900284AD1A37903F0200202F0FF0053
:10ACD000002A43D05B060DD5214651F8243BA269DA
:10ACE00058780123FEF72CFE002836D1A37923F0F3
:10ACF0004003A3712068E169FEF7AFFF70BB256ACE
:10AD0000EB7A43F02003EB72E3682B77A3891B0AED
:10AD10006B77E389AB77E37BEB772369AB76238AA9
:10AD20001B0AEB76638A2B75638A1B0A6B7505F029
:10AD300005F8C0F30723A875EB75030C000E2B76FE
:10AD40006876A379012223F02003A37123681A7186
:10AD50002068BDE83840FFF799B9012038BD10B52B
:10AD60000446FFF7A8FF00B9206010BD70B5044687
:10AD70000D460068A188FFF777F9002840F093801E
:10AD8000A279160600F18C80E3689D4203D912F087
:10AD9000020F08BF1D460022A368A2600DB900255E
:10ADA0004DE02068867876026BB1013B691EB1FBED
:10ADB000F6F1B3FBF6F2914205D372421340A36061
:10ADC000ED1A61690AE0216939B9FFF7EBFA012848
:10ADD00001462DD0013052D0216161610029DED0C1
:10ADE000B5421AD9A37920689A0704D5FFF7DAFA91
:10ADF000014618B910E0FFF7AEF901464B1C3ED0F2
:10AE0000012915D92368DB69994211D2A3686161D0
:10AE10003344A360AD1BE3E73546A3682B44A3602E
:10AE2000C5F30803002BBAD02068FFF789F920B9D1
:10AE3000A37963F07F03A37132E000EB5525A3688B
:10AE4000C3F3080313B3A26995421FD0A37904F199
:10AE5000240613F0400F0AD02368314658780123A6
:10AE6000FEF76EFDA37958B923F04003A371236860
:10AE7000314658782A460123FEF720FD28B1A379F0
:10AE800063F07F03A371012070BDA561A368E26830
:10AE9000934207D9E360A37943F02003A37101E053
:10AEA000022070BD002070BD10B586B0044606A813
:10AEB00040F8141D00222146FEF74EFF10BB03ABE5
:10AEC000A36120460199FFF735FBB0B963696BB107
:10AED000DA7AD20615D5597D1A7D42EA0122D97E49
:10AEE0009B7E43EA012343EA0243A3602368204692
:10AEF000DB880021A380FFF797F9042808BF05200D
:10AF000000E0052006B010BD7FB504460E4600687F
:10AF1000A188FFF7A9F80546E8B926B920462946D1
:10AF2000FFF782F916E001ABA3612046FFF733FC7F
:10AF3000042801D1256100E060B920463146FEF7C2
:10AF40004DFE20460021FFF77AFA042802D10023A3
:10AF5000236100E00546284604B070BD2DE9F74F97
:10AF600002AB43F8040D88461646114618460022E7
:10AF7000FEF7F2FE0446002861D13368DF691A69E2
:10AF8000B91E8A4202D8C8F8002058E093F8009011
:10AF9000B9F1010F11D10227054630683946FFF794
:10AFA000DAF8431C3CD001283CD000B901353368A5
:10AFB0000137DB699F42F0D337E0596A0246034606
:10AFC000054652B9306801F1010AFEF746FE58BB4A
:10AFD0003368514634334FF40072B9F1020F587898
:10AFE00093F800C006D15CEA002C08BF013502339B
:10AFF000023A11E093F802A093F803B04FEA0A4A2C
:10B000004AEA0B6A4AEA0C0C4CEA002020F0704035
:10B0100000B901350433043A013F92B2D1D104E0C2
:10B02000012402E0022400E004463368B9F1030F72
:10B0300008BF01221D6108BF5A71C8F800502046A0
:10B0400003B0BDE8F08F000072B6044B1A68511CC3
:10B050001CBF01321A601868704700BF440C002002
:10B06000034B186818B10138186000B962B6704710
:10B07000440C002030B5184D8DB002AC0FCD0FC47C
:10B080000FCD0FC495E803000E2384E80300079357
:10B0900002A84FF400430B9300F044FB00230CA8DC
:10B0A00000F82C3D8DF805308DF80630FEF72CFBAE
:10B0B0000A4B0120DA6942F00302DA61FEF71AFB5B
:10B0C000074B602283F818234FF08072C3F8802169
:10B0D0001A600DB030BD00BFE06301000000084001
:10B0E00000E100E0202838B505460C4600D821B91B
:10B0F00004484FF49B71FDF7DBF8034B03EBC505E8
:10B100006C6038BD086401006C0C0020202870B50C
:10B1100004460D46164606D84B1CDBB2182B02D847
:10B12000D3B23B2B04D9094840F25B11FDF7C0F8BC
:10B13000074B002213F8341003F8342003EBC40249
:10B140005570C9B2967003F8341070BD08640100E0
:10B150006C0C0020202870B505460C46164601D818
:10B1600001B122B906484FF4BF71FDF7A1F8054BB4
:10B1700003EBC5056B782370AB78337070BD00BFEF
:10B18000086401006C0C0020202810B5044604D986
:10B1900004484FF4CB71FDF78BF8034B13F83400E0
:10B1A00010BD00BF086401006C0C0020202838B5D9
:10B1B000044604D909484FF4D671FDF779F8084BD5
:10B1C00003EBC40252681D4622B9044840F2AF1195
:10B1D000FDF76EF8012305F8343038BD086401002E
:10B1E0006C0C0020202810B5044604D9044840F215
:10B1F000C511FDF75DF8034B002203F8342010BDA4
:10B20000086401006C0C002070B5064620B918488F
:10B2100040F2E311FDF74CF80023164C164D22685E
:10B22000934209DC05EBC302516819B945F83310A4
:10B23000566019E00133F0E723680E2B03DD0F4859
:10B24000102103F0BFFF23680E2B04DD08484FF4E4
:10B25000FC71FDF72DF823680022013345F83320F7
:10B2600005EBC3056E602360D8B240B270BD00BF6D
:10B2700008640100600C0020740D002020640100AF
:10B2800070B5041E0D4604DB0C4B1B689C4200DCB1
:10B2900021B90B4840F22E21FDF70AF8094B03EBC8
:10B2A000C40252681E4622B9054840F23121FCF71B
:10B2B000FFFF013546F8345070BD00BF600C002020
:10B2C00008640100740D002010B5041E03DB074B59
:10B2D0001B689C4204DD064840F24721FCF7E8FF6A
:10B2E000044B002243F8342010BD00BF600C002046
:10B2F00008640100740D002038B5044620B90848E0
:10B3000040F25B21FCF7D4FF064A1368154623B1CF
:10B31000A34202D0044803F047FF2C6038BD00BFB1
:10B3200008640100640C00204B64010038B5124B26
:10B33000421E9A42044604D9104840F27921FCF793
:10B34000B7FF0F4B1B6823B90C484FF41F71FCF774
:10B35000AFFF0C4D4FF47A726B68E103B1FBF2F171
:10B360001944012021F07F41FEF7A4F90423AB61C9
:10B37000054B01221A6038BDFEFF01000864010080
:10B38000640C00200000084088030043034B0022A7
:10B390001A60034B04229A61704700BF8803004380
:10B3A00000000840014B5868704700BF000008408B
:10B3B00038B505460C46B9B10C4B4A1E9A4204D921
:10B3C0000B4840F2C321FCF773FF0A4BE4035868B3
:10B3D0004FF47A73401B20F07F40B4FBF3F4A0429B
:10B3E00034BF0020012038BD012038BDFEFF010020
:10B3F00008640100000008400C4B421E9A4210B540
:10B40000044604D90A4840F2E221FCF751FF094BF7
:10B41000E4034FF47A725968B4FBF2F45A68521A92
:10B4200022F07F42A242F9D310BD00BFFEFF01000F
:10B430000864010000000840054B5A6859689142B1
:10B44000FCD0034A526859689142FCD0704700BF53
:10B450000000084010B5044620B9044840F21931F4
:10B46000FCF726FF024B1C6010BD00BF0864010002
:10B47000680C002037B580B1002000F019F902AB4C
:10B4800043F8040D184605F0B7F9074C05460FCDF3
:10B490000FC40FCD0FC42B682360044B1B6803B18E
:10B4A000984703B030BD00BFE42C0020680C00209A
:10B4B000F8B5364C2369E5691D40E90703D500F06E
:10B4C00053F90123A361AA0702D46B075CD551E0AD
:10B4D000A168002001F5004121F07F41FEF7EAF864
:10B4E0000223A3610120FFF7C5FF2949294B4A68C0
:10B4F00093F900000E46904201D1002425E01A7015
:10B500000024254911F83430B3B1E2008B189F783C
:10B5100070687FB287420FD1587840B2013005D0B1
:10B5200058781B4B40B29B68984205D18B185A68DB
:10B5300012B15B68204698470134212CE1D1DCE749
:10B54000164B53F834202AB90134154B1B689C4222
:10B55000F6DDBAE753F83420013A43F83420002AE4
:10B56000F2D103EBC4035A68002AEDD05B6860B2E5
:10B570009847E9E70B4B00221A60044B04229A61BA
:10B58000094B1B6803B19847F8BD00BF0000084095
:10B59000E42C0020090100206C0C0020740D002018
:10B5A000600C002088030043640C00202DE9F0416A
:10B5B0000E46044600B121B9134840F27B31FCF736
:10B5C00077FE124F124DFFF73FFD0FCDD7F80480E5
:10B5D000D7F808C00FC40FCD0FC42B6823603B6998
:10B5E0009B0702D540F2E73308E0CCEB080CCCF324
:10B5F0000E0C4FF47A7303FB0CF3DB0B3360BDE8E6
:10B60000F041FFF72DBD00BF0864010000000840B5
:10B61000E42C0020F7B50E46044620B91F484FF42D
:10B620006A71FCF745FE00232362204605F06CFD9D
:10B630001B4B01901A6872B9186001A805F0DCF87C
:10B64000184C05460FCD0FC40FCD0FC42B681648FC
:10B65000236003F0A9FD154C0020E769E0616568EF
:10B66000FEF748F8636A13F0060FFBD11EB90F4BC3
:10B670009B685B1B01E04FF400430C4CA360E36844
:10B680005D1BE560019800F069F8002000F074F897
:10B690000120FEF72FF8E76103B0F0BD0864010058
:10B6A000082D0020E42C00208A64010000000840DE
:10B6B0001049114A03460020126830B508600F494E
:10B6C0000C680F49086800FB04200E4A11680E4AF6
:10B6D00021B161431588B1FBF5F108440B4912888B
:10B6E0004968B1FBF2F21044024A0121116003B132
:10B6F000186030BD80030043FC0D0020F80D0020D1
:10B70000000E0020040E0020F40D00200000084070
:10B71000002208B5026205F0F7FC014B186008BD75
:10B72000FC0D0020426A094B00211A80084B92B29E
:10B73000196008494FF0807393FBF2F30B60534399
:10B740000549C3F180730B60FFF7E2BFF40D0020E1
:10B75000F80D0020000E0020040E0020014B1860A0
:10B76000704700BFFC0D0020024B186801301860C4
:10B77000704700BFF80D0020014B1860704700BFF4
:10B78000F80D0020426803689342194605D80968FD
:10B7900004330131F8D000207047012070470000C9
:10B7A00037B590E828000433AB42184610D8046837
:10B7B00004330134F8D142EA014202A941F8042DD0
:10B7C00004220AF035FD28B104488521FCF770FDFC
:10B7D000002000E0012003B030BD00BFA7640100DD
:10B7E00073B5224B80B2019305B2214B002D188016
:10B7F000204C0DDD4FF4FF332360012D03F5FE7364
:10B80000636005D04FF4FE33A36003F5FE73E3607D
:10B81000013D04EBC506002D0CDB3046FFF7B2FFFF
:10B8200028B930680AF00CFD08B100201CE0013D89
:10B83000083EF0E7104D00232B60104B4FF0FF3215
:10B840001A60206801A904220AF0F2FC0028ECD159
:10B850002A68084B0A4953F8320004220AF0E8FC2F
:10B86000D0F1010038BF002002B070BD010000FF20
:10B870001C0E0020080E0020100100200C010020EA
:10B8800014010020134B70B51B7806460C4623B9F3
:10B8900011484FF4F871FCF70BFD104B32881D680E
:10B8A0000F49561EB6B24FF6FD7001EBC503864236
:10B8B0005B680BD851F83500834207D953F8041957
:10B8C000B2EB114FF8D12180012070BD0020208003
:10B8D00070BD00BF1A0E0020A764010010010020F7
:10B8E000080E0020084B10B51A8811B27F2909DC18
:10B8F000064C013221881A80013189B201802180F1
:10B90000012010BD002010BD1E0E0020180E0020CA
:10B910000B4B10B51A681C46013204D1094840F29D
:10B920009621FCF7C5FC2268074B53F832301868A3
:10B930006FF07F4320F07F40984208BF002010BD89
:10B9400010010020A7640100080E00202DE9F74334
:10B950004F4D80462B68894601334E4E4E4C1AD1CE
:10B960004E4A3368B2F90020013393422B60A4BFE2
:10B9700000232B60286804EBC000FFF703FF50B9D9
:10B980004748F921FCF794FC414B1A68424B53F8A5
:10B9900032000AF055FC2B68424954F83300042267
:10B9A0000AF046FCB8F1000F09D0394BB8F8001086
:10B9B0001868394B4A4603EBC000FFF7F1FE3368C5
:10B9C00004EBC303D3F80490336854F8333099453B
:10B9D00031D959F804294FF6FD70130C99B201F1D1
:10B9E000FF3E1FFA8EFE864523D8B8F1000F04D023
:10B9F0002D48B0F9000083421BDC2B68D80004EB13
:10BA0000000E54F83330DEF804C00433634508D820
:10BA100053F804EBB1EB1E4F0BD0BEF1FF3FF5D155
:10BA200001E0002FD0D0204492B2FFF7B9FE0127E9
:10BA3000CAE70027C8E7FFF76BFF2B6801900BB937
:10BA400001300190019A02A942F07F4241F8042D91
:10BA500054F833000422104F0AF0EAFBA0B933680F
:10BA600057F833000AF0ECFB70B92B680F4957F810
:10BA700033000422064C0AF0DBFB28B92368054A90
:10BA800013604FF0FF33236040B203B0BDE8F08392
:10BA90000C01002010010020080E00201C0E0020C8
:10BAA000A764010018010020180E002014010020D6
:10BAB000324B2DE9F0411A7804461D4622B1304838
:10BAC00040F27F11FCF7F4FB01232B709C422D4BBD
:10BAD00098BF02241C802C4B4FF4FF321A6002F5F1
:10BAE000FE725A604FF4FE329A60002602F5FE7232
:10BAF000DA6035461F4657F80680B81998F80320D3
:10BB0000AA2A07D0FF2A0BD06AB9204B1968013145
:10BB100004D02DE01E4B1A6801322CD11D6005E0C7
:10BB2000FFF730FE10B940460AF08AFB0135A54206
:10BB300006F10806DFD3164A144B116818684D1C2D
:10BB400004D1013018BF0120BDE8F081441C08D1A8
:10BB5000196010600F4957F8080C04220AF068FBBE
:10BB600003E000200146FFF7F1FE0120BDE8F0816F
:10BB70001046BDE8F0810020BDE8F0811A0E0020DB
:10BB8000A76401001C0E0020080E002010010020F8
:10BB90000C01002014010020174B37B51B78044618
:10BBA0000D4623B9154840F21B21FCF781FB144BCD
:10BBB0002288B3F900309A4204DD104840F21E2179
:10BBC000FCF776FB20460DF10601FFF75BFE18B18E
:10BBD000BDF80630AB420DD00A4B218818680A4BDD
:10BBE0002A4603EBC000FFF7DBFD18B920462946C3
:10BBF000FFF7ACFE03B030BD1A0E0020A7640100B1
:10BC0000180E002010010020080E002010B5044678
:10BC100018B919486521FCF74BFB184B00221C6032
:10BC2000174B4FF6FF71C3F81021C3F80821C3F872
:10BC30000C21C3F81C11134B08341A60083434F873
:10BC4000102C196812B10A431A60F7E70C4AC2F8BF
:10BC500008111B680221C2F80C310B4B602283F8DB
:10BC60000123C3F88011196083F809234FF400728F
:10BC7000C3F880211A6010BDC5640100280E0020A1
:10BC800000600040200E002000E100E0024B002296
:10BC9000C3F81021704700BF00600040064B4FF60C
:10BCA000FF72C3F81C21054A1168C3F81811126805
:10BCB000C3F81021704700BF00600040200E002034
:10BCC00010B5044C01232370FFF7E8FF0023237015
:10BCD00010BD00BF240E00200F2810B5044603D964
:10BCE0000448D321FCF7E4FA034B002223449B00D1
:10BCF0001A6010BDC5640100800883100F2810B5BC
:10BD0000044603D90748E721FCF7D2FA012202FAD8
:10BD100004F1054BC3F81C11044B23449B001A602B
:10BD200010BD00BFC56401000060004080088310A2
:10BD3000294B2DE9F0471B781BB9284BD3F8049009
:10BD400001E04FF00009264AD2F81431D2F8102150
:10BD500012EA03083ED0234B1C6808EA04040127BA
:10BD6000002C32D0B4FA84F2D2B2C2F11F06B7402E
:10BD7000072E24EA07041A4B05DCD3F80021B30090
:10BD800022FA03F305E0D3F80431C2F1170292005E
:10BD9000D34003F0070324225A43134B9B581F42FE
:10BDA000124B0CBF4FF0000A4FF0010A1D68083516
:10BDB00035F8083C002BD2D03B42F8D055F8043C73
:10BDC000304651464A469847F1E7054BC3F81C8177
:10BDD000074B1F70BDE8F087240E002000000840CC
:10BDE00000600040200E00201C600040280E002053
:10BDF000942D0020FFF79CBFFFF79ABF10B5054CAC
:10BE000023685888FFF792FA2368034A5B68107822
:10BE1000984710BD300E0020340E002013B50446A4
:10BE200018B92C486E21FCF743FA63681BB92948FE
:10BE30006F21FCF73DFA284B284801211C60FCF7D4
:10BE400071FB00200024034608210122FCF7F6FFC5
:10BE500020462246234600940821FCF7ADFF2346E6
:10BE600002200D210122FCF7E9FF2246234600941F
:10BE700002200D21FCF7A0FF2046234609210122C4
:10BE8000FCF7DCFF20462246234600940921FCF7FC
:10BE900093FF204623460A210122FCF7CFFF2046CC
:10BEA0002246234600940A21FCF786FF23460220FF
:10BEB0000E210122FCF7C2FF009402200E2122462F
:10BEC0002346FCF779FF064802B0BDE81040FFF7B3
:10BED00013BA00BFD9640100300E002000C2020076
:10BEE000FDBD0000083838B506282ED8DFE800F080
:10BEF00004070A2D2D100D00012423460AE0072413
:10BF0000032307E00A24042304E00D24052301E0B1
:10BF1000042402230D4D2A7841B1934215D1FFF735
:10BF200035FA02340023E4B22B7009E06AB92B70B1
:10BF3000074B621C1A70074B1B681888FFF7F6F94D
:10BF4000044B20461B685B68984738BD2C0E0020C8
:10BF5000340E0020300E002010B5044C0448214659
:10BF600003F022F90023237010BD00BF182D00201C
:10BF700018650100014B1878704700BF0C2D002098
:10BF8000024A01231370024A13707047390E0020D1
:10BF9000370E0020014B1878704700BF390E002083
:10BFA000F8B5254B1B78002B45D0244803F0FCF84E
:10BFB000234B01245B01234F1C602348214697F942
:10BFC0000050FCF7AFFA0220214622460023FCF77E
:10BFD00035FF0C2169431D481D4B421841581D4D2A
:10BFE0009960117900265973D1881289D981284620
:10BFF00019461A821E705E601E73FDF7F1F841F655
:10C00000FF73AB64EB6C402243F00403EB64124B10
:10C01000284683F80C234FF48052C3F88021214630
:10C020001A606C65FDF794F897F90100214602F05B
:10C0300049F80A4B1E70F8BD0C2D00202F65010039
:10C04000922D10213A0E002000120200006501001E
:10C050001C01002000C4004000E100E0380E002078
:10C0600008B50D4B002193F9010002F02BF80B48A5
:10C070000021FCF757FA0022134602200121FCF7A9
:10C08000DDFE074A00231370064A07485201136079
:10C09000BDE8084003F088B83A0E00200012020004
:10C0A000380E0020922D1021426501001B4B10B567
:10C0B0001A781C460AB1FFF7D3FF00232370184BF0
:10C0C000187842B2531C28D0164B19784BB25C1C1E
:10C0D00023D0154C6170114920700120087013495C
:10C0E000134851F82210134A52F8232003F05CF849
:10C0F000114B196861B1114C114803F055F82378C0
:10C100005BB2013309D10F48FFF77EF8207010BDF4
:10C110000D48BDE8104003F047B810BD0C2D0020BD
:10C12000102D00202A2D00203A0E0020340100207E
:10C13000566501008C010020142D002030010020E4
:10C140008E65010059BF0000C2650100114B10B59A
:10C150001A78EAB100221A700F4B1B6813B10F4B0B
:10C160001B7883B90E4B1A7852B2013203D018787B
:10C1700040B2FFF7A9F80B4C23784BB1FFF770FFE3
:10C180000023237010BD0848BDE8104003F00CB830
:10C1900010BD00BF390E0020142D0020182D0020E6
:10C1A00030010020360E0020F5650100164B10B559
:10C1B0001B78164C2BB12378C3B9FFF7F1FE01238E
:10C1C00013E0237893B1124B1B6813B1114B1B780A
:10C1D00063B9114B1A7852B2013203D0187840B2C9
:10C1E000FFF772F8FFF73CFF002323700B4B1A7820
:10C1F0004AB1002207481A7001F054FFBDE8104010
:10C20000032000F0F1B910BD390E0020360E0020D9
:10C21000142D0020182D002030010020350E0020A4
:10C2200038B5054B0025054C1D70237813B1FFF779
:10C2300017FF257038BD00BF390E0020360E0020D4
:10C24000F0B5894B95B01A69110640F10B81874A08
:10C25000DC691068137901908DF8083003AD531D27
:10C2600002F11506186859682A4603C20833B3421A
:10C270001546F7D1220403D57D4B1A8801321A8066
:10C28000630403D57B4B1A8801321A807A4AE3B2E1
:10C290007A481478D9B20155794C94F90050144673
:10C2A00015B1012D46D0A1E012780D2A00F29B8035
:10C2B000DFE802F0070A0A0A0A1515151515151503
:10C2C000151A704A00201070227814AE324412F809
:10C2D0004C2C934203D0684B00221A70B4E0694B97
:10C2E0001A78514019704EE0664B417B1A789142A2
:10C2F0007FD0654E002007AB2025C55416F8015F9E
:10C300000DF1500C0CEB151E05F00F051EF844EC5A
:10C3100065441F1815F8445C033087F801E02A28AB
:10C3200003EB000707F8015CE5D100258DF84650C6
:10C33000564854E012780A2A55D8DFE802F0060879
:10C340000B0B0B0B0B0B0B242800542B4BD1504A1F
:10C35000002111804E4A108880EA030101F00F018C
:10C3600001EB811101EB811189B281EA101181EA9F
:10C37000131303F00F0303EB831303EB83139BB23D
:10C3800083EA1111118023780133DBB22CE0437A68
:10C39000817A43EA01213E4B1A88914229D03A4ED4
:10C3A000002007AB2025C55416F8015F0DF1500C95
:10C3B0000CEB151E05F00F051EF844EC65441F1824
:10C3C00015F8445C033087F801E0212803EB0007EF
:10C3D00007F8015CE5D100252E488DF83D5002F0AC
:10C3E000F1FE257030E0002323702DE00023137050
:10C3F0002AE0002222700823C15C0DF1500E0EEBE2
:10C40000111501F00F0115F8445C714407AC11F8E7
:10C41000441C1555013B04EB0205697002F1020250
:10C42000EAD18DF82C301C4B1A781D4682B9204673
:10C430001A4905F0D3FA58B9194B196821B1194BAB
:10C44000187840B2FEF71CFF074B04229A6409E0FB
:10C450000023124821462B7005F0DEFB124B01220F
:10C460001A70E9E715B0F0BD00C40040EB640100AC
:10C470002C2D00200E2D0020380E00203C0E002018
:10C480003A0E00204C0E00203B0E002022660100D8
:10C490004A0E00205D660100370E0020182D002096
:10C4A000142D002030010020350E0020044B1B7895
:10C4B00013B1044B00221A70034B01221A7070470B
:10C4C000880E0020580E0020942D002070B50546DF
:10C4D00018B91A488821FBF7EBFE194B194A1D6061
:10C4E000156000241E46214604342B1953F8043CE1
:10C4F00033B1326810205258596812689047F2E7F9
:10C50000114C23785BB2013303D11048FEF77CFE57
:10C5100020700F4C23785BB2013303D10D48FEF736
:10C5200073FE20700C48FEF795FFBDE870400B4A83
:10C53000012313700A4A137001F014B89E660100BB
:10C54000500E0020800E002041010020ADC40000EC
:10C5500040010020B9C50000C1C800004D0E0020F8
:10C56000580E0020054B1A7852B2013204D01878C8
:10C570001E2140B2FEF784BE704700BF410100207B
:10C58000044B1A7852B2013203D0187840B2FEF749
:10C590009BBE704741010020054B1B7833B9054B0A
:10C5A0001878D0F1010038BF002070470020704794
:10C5B000590E00208A0E0020084B10B51C681CB1D3
:10C5C000074B01221A7005E0FFF7E6FF10B1204685
:10C5D000FFF76CFF034B01221A7010BD540E0020B0
:10C5E0005A0E0020942D0020042810B506D9BDE86D
:10C5F0001040094840F22521FBF75ABE074B084975
:10C600001C78084A084B09781B68525C53F82230A2
:10C6100004B99B68984710BD9E6601007E0E0020FD
:10C62000590E00208A0E0020800E00202DE9F84FC0
:10C6300006466D4C236823B96C4840F24711FBF75E
:10C6400037FE0E2EDFF8C4B109D19BF80030002B65
:10C6500040F0C88001238BF8003012260FE0002341
:10C660000D2E8BF8003001D102F0B6FEFFF77AFFF5
:10C670005F4B1A781AB901221A70BDE8F88F5D4D28
:10C68000DFF880912B785C4F19F803803B78CA461D
:10C690003BB92368304653F828301A6859689047E8
:10C6A00006469BF800303BB1544B1B6823600023C7
:10C6B00089F800302B703B70731E122B00F29280B1
:10C6C000DFE803F00F0F900F0F906390903490907D
:10C6D000909090900A0A0A000020BDE8F84FFFF7FA
:10C6E00083BF3B7833B92368122053F828301A6887
:10C6F00059689047043EF6B2012E434608D8226896
:10C7000008F1010352F82320002A08BF002308E0A3
:10C710002BB9226852F8041F19B10133FAE708F166
:10C72000FF332A7809F80230112682E72B78002B94
:10C7300058D03B7833B92368122053F828301A6850
:10C74000596890472B78DFF8B480013BD8F8006037
:10C75000DBB22B7026600021994212DA1AF8012010
:10C7600056F82200C66856B92548266002F01CFD1E
:10C77000D8F800302E702360224B1E7002E0013189
:10C78000EAE7266000233B70CEE72B78DFF864A051
:10C79000042B05D11C480521BDE8F84F02F004BD6B
:10C7A0003E78FEB92368104D53F82830DA68CAB1D4
:10C7B0001A685968122090472B689AF8002053F89D
:10C7C00028300132D2B2DB6809F802608AF8002012
:10C7D0001A682B60002AA7D104332B60064B012274
:10C7E0001A70A1E7BDE8F88F800E00209E66010058
:10C7F000580E0020590E00207E0E0020500E002002
:10C80000B76601008A0E0020EE6601005B0E002074
:10C8100038B5234B1A787AB1224A0021146819706E
:10C8200024B1214B11601868A04705E0FFF7B4FE62
:10C8300010B12046FFF73AFE1C4B1D4C1B7803F04D
:10C84000FF0523B3237803F0FF0533B900F020FE82
:10C85000012328462370FFF7C7FE164C2378F3B157
:10C8600004F188746401236833B10023236001203C
:10C87000A360114900F0CCFE636883B100236360BC
:10C880000220E3600D49BDE8384000F0C1BE2378C6
:10C890002BB10E20FFF7CAFE00F066FE257038BDF2
:10C8A0005A0E0020540E0020840E0020580E002046
:10C8B0004D0E0020890E00205C0E00206D0E002021
:10C8C0000220FFF791BE0000084B10B51A7862B93C
:10C8D00001241C70FFF760FE38B1054B1C70054B3E
:10C8E0001C70BDE81040FFF73DBE10BD880E002053
:10C8F000580E0020942D00200EB4431E012B33B59A
:10C9000005D9104840F29621FBF7D2FC14E00E4CFA
:10C910000130640154F8202085006AB90B4803EB0C
:10C92000031306AA18440599019206F091FC084ADF
:10C930000123083D2B51137002B0BDE8304003B015
:10C94000704700BF9E660100890E10215C0E00201A
:10C95000942D00200EB433B5441E012C05D9124885
:10C960004FF43371FBF7A4FC19E0FFF715FEA0B1FB
:10C970000E4B01250E481D7004EB041306AA184443
:10C980000599019206F064FC0A4BA2005B01083293
:10C9900043F82450D550084B1D70FFF7F1FD02B04D
:10C9A000BDE8304003B070479E660100580E00207D
:10C9B0005C0E0020890E1021942D00202DE9F041FD
:10C9C000154B9046154D00221A702A78044652B233
:10C9D00001320E461F4603D0287840B2FEF774FCA1
:10C9E0000F4B1B78ABB10F4B1E600F4BC3F8008091
:10C9F0005CB12B785BB201330BD0084B2146187821
:10CA0000BDE8F04140B2FEF73BBC084A01233B7051
:10CA10001370BDE8F08100BF5A0E002040010020D5
:10CA2000580E0020540E0020840E0020942D00206B
:10CA30007047000008B510B103280FD008BD0C4A9C
:10CA40000120A2F11A030B49FFF756FF0A4B0220FF
:10CA50001B780BB1094906E0094904E0064B1B7835
:10CA60002BB108490220BDE80840FFF745BF08BDCB
:10CA70002E8001002C6701008F0E0020336701001B
:10CA800044670100182D002002281FB5044602D07B
:10CA9000032811D0B8B90D4A0120D168136900915B
:10CAA00091680344019151680291116803915269A0
:10CAB0000749FFF721FF34B90649022004B0BDE859
:10CAC0001040FFF719BF04B010BD00BFE42C0020D8
:10CAD00054670100182D0020112870B504460AD0B3
:10CAE000122818D0042828D1154B002403201C70CC
:10CAF000FFF77AFD21E0FFF73DFA124B187008B9F5
:10CB0000112070BDFFF746FA0F4B18700028F7D1BF
:10CB1000FFF736FAF4E70B4B1B780BB9122070BD08
:10CB2000094D2E78FFF736FA8642F7D02B7813B1ED
:10CB3000FFF726FA01E0FFF709FB204670BD00BFB2
:10CB4000182D00208F0E0020900E002037B5244DA8
:10CB5000012895F9004002D902281FD03EE0214D5E
:10CB6000621C55F8243001204BB91F49FFF7C4FE61
:10CB70001E49022003B0BDE83040FFF7BDBE1C498E
:10CB8000FFF7BAFE1B4B1C4955F8242053F82430FC
:10CB9000022003B0BDE83040FFF7AEBE174B1B7854
:10CBA0002341DB071AD5204601F05EFC00F1320478
:10CBB00095F9000001F072FC4FF47A71B4FBF1F3C7
:10CBC00001FB134195F900206425B1FBF5F10190BB
:10CBD0000120009102440A49FFF78EFE03B030BDE8
:10CBE000920E0020382D0020A8670100B9670100CF
:10CBF000C9670100302D0020DB670100910E002085
:10CC0000EB670100022873B5044603D004282DD039
:10CC100000283CD11F4D95F90000002821DB012898
:10CC200004DD02281DD101201B491CE001F01CFC81
:10CC300000F1320695F9000001F030FC4FF47A71F2
:10CC4000B6FBF1F301FB136195F900206425B1FBFC
:10CC5000F5F101900120009102441049FFF74CFECC
:10CC600003E00F490120FFF747FE84B9094B93F910
:10CC7000000001F033FB0B4B0B4A0C49002818BF96
:10CC80001A46022002B0BDE87040FFF735BE02B080
:10CC900070BD00BF920E002008680100EB67010024
:10CCA00014680100016801000568010025680100A1
:10CCB000084BC9B20F2810B519700AD14CB22046E2
:10CCC00001F00CFB80F00101C9B2204601F0FAF935
:10CCD000002010BD920E002070B5184D04460E467F
:10CCE0002970FFF74DFC112C04D0122C06D00F2C0C
:10CCF00022D109E095F90000012102E095F9000038
:10CD0000002101F0DFF917E00D4B53F8261099B11F
:10CD100095F9000001F03EFD0A4B95F9000053F82B
:10CD2000261001F053FD012202FA06F6064B002000
:10CD30001A7816431E7070BD204670BD920E0020FA
:10CD4000382D0020302D0020910E002008B548B964
:10CD500001200549FFF7D0FDBDE808400220034946
:10CD6000FFF7CABD08BD00BF356801004468010077
:10CD700037B510B1042804D023E001201249FFF791
:10CD8000BBFD002001F0AAFA104D114B114C0028F8
:10CD900018BF1D46012001F0A1FA0F4B002818BF53
:10CDA0001C46022001F09AFA0C4B0D4A0D4900284E
:10CDB0000CBF1046184600902A4602202346FFF773
:10CDC0009BFD03B030BD00BF6D68010057680100D6
:10CDD000536801005F6801005B680100636801003F
:10CDE000686801007A680100112810B5044605D072
:10CDF000122808D1054B00221A7004E0034B1B785F
:10CE00000BB101F0FFFC204610BD00BF910E0020C9
:10CE100008B510B102280DD008BD10204FF0FF3129
:10CE200003F03AFA01200C49FFF766FD02200B4996
:10CE3000FFF762FD03F040FA0278034622B10220B8
:10CE400007495A68FFF758FDBDE8084010204FF029
:10CE5000FF3103F021BA00BF2C690100D27E01002E
:10CE60003D69010008B510B102280DD008BD182099
:10CE70004FF0FF3103F010FA01200C49FFF73CFDA1
:10CE800002200B49FFF738FD03F016FA027803463B
:10CE900022B1022007495A68FFF72EFDBDE808407D
:10CEA00018204FF0FF3103F0F7B900BF4A690100C5
:10CEB000D27E01003D69010008B510B102280DD0F5
:10CEC00008BD1C204FF0FF3103F0E6F901200C49AA
:10CED000FFF712FD02200B49FFF70EFD03F0ECF9FE
:10CEE0000278034622B1022007495A68FFF704FD81
:10CEF000BDE808401C204FF0FF3103F0CDB900BF62
:10CF00005A690100D27E01006869010008B510B1BC
:10CF100002280ED008BD41F222004FF0FF3103F08D
:10CF2000BBF901200C49FFF7E7FC02200B49FFF792
:10CF3000E3FC03F0C1F90378024623B1022008495B
:10CF40001032FFF7D9FCBDE8084041F222004FF053
:10CF5000FF3103F0A1B900BF77690100D27E010063
:10CF60008B7C010008B510B102280ED008BD41F23B
:10CF700021004FF0FF3103F08FF901200C49FFF73A
:10CF8000BBFC02200B49FFF7B7FC03F095F90378CF
:10CF9000024623B1022008491032FFF7ADFCBDE87C
:10CFA000084041F221004FF0FF3103F075B900BF96
:10CFB00083690100D27E01008B7C010008B510B1AD
:10CFC00002280ED008BD4FF481504FF0FF3103F01E
:10CFD00063F901200C49FFF78FFC02200B49FFF792
:10CFE0008BFC03F069F90378024623B1022008495B
:10CFF0001032FFF781FCBDE808404FF481504FF03C
:10D00000FF3103F049B900BF8F690100D27E0100F2
:10D010008B7C010008B510B102280DD008BD11208D
:10D020004FF0FF3103F038F901201249FFF764FC9B
:10D0300002201149FFF760FC03F03EF903788BB141
:10D0400042684FF6FD739A424FF0020003DD0B4930
:10D05000FFF752FC06E04FF4B463094992FBF3F387
:10D06000FFF74AFCBDE8084011204FF0FF3103F004
:10D0700013B900BF9C690100D27E0100AD690100B7
:10D08000BB69010008B510B102280DD008BD0F2002
:10D090004FF0FF3103F000F901200C49FFF72CFCA1
:10D0A00002200B49FFF728FC03F006F9027803463B
:10D0B00022B1022007495A68FFF71EFCBDE808406C
:10D0C0000F204FF0FF3103F0E7B800BFC86901003F
:10D0D000D27E01003D69010013B510B102280CD0C9
:10D0E00026E009200A2103F0D7F801201149FFF7B3
:10D0F00003FC02201049FFF7FFFB03F0DDF8037883
:10D100007BB141684FF47A7391FBF3F203FB121386
:10D11000C068642400900949022093FBF4F3FFF7F0
:10D12000EBFB09200A2102B0BDE8104003F0B4B8BF
:10D1300002B010BDD9690100D27E0100E86901008A
:10D14000224B072810B5196030D004D8012820D010
:10D15000042812D010BD0A2830D0112834D11C4B1D
:10D1600001221A701B4B03EBC1014C79CA791A4B8F
:10D17000A2421C6028DD1A6010BD154B1A781ABB3C
:10D18000164B1548196800680131814219600BDCA3
:10D1900019E00F4B1B78BBB9104B1A68013A002AF3
:10D1A0001A6010DA0C4A12681A600CE0084A002370
:10D1B000107848B11370094A136004E0044B1A78E0
:10D1C00012B901221A70132010BD00BF940E002066
:10D1D000A00E00200C6A01009C0E0020980E00207A
:10D1E00008B548B901200549FFF786FBBDE80840AE
:10D1F00002200349FFF780BB08BD00BF346A01006D
:10D20000456A01002DE9F043012885B000F2B280A3
:10D210005A4B5B4D1B785B4C73B32B684FF0000887
:10D2200004EBC3031E795F793744BE4207DA304608
:10D23000FDF7AAFF08B108F101080136F5E72B68F0
:10D24000002704EBC3039E7993F80790B1444E4541
:10D2500006DA3046FDF798FF00B101370136F6E7F0
:10D260002B68012054F8332047494346FFF744FB1D
:10D27000022046493A467BE0454F2A683B6823BB7B
:10D28000444B012053F82230002B07DA424954F86E
:10D290003220FFF731FB0220404907E009D13E4927
:10D2A00054F83220FFF728FB3D490220FFF724FB0A
:10D2B00060E03C4954F83220FFF71EFB2A683A4BE5
:10D2C00002203A4953F8222052E004EBC2010E79C1
:10D2D00049798B4204DD0120354954F832201EE0A3
:10D2E00033445E1E3046FDF74FFF98B130460DF1D6
:10D2F0000E010DF10F02FDF72DFF2A689DF90F10A9
:10D300009DF90E30009101202A4954F83220FFF790
:10D31000F3FA06E02B68284954F833200120FFF780
:10D32000EBFA2B683A6804EBC304E179A3798A42EB
:10D33000174D02DD022021491AE01A44541E2046EE
:10D34000FDF722FF88B120460DF10E010DF10F020D
:10D35000FDF700FF9DF90F209DF90E30009202208D
:10D3600017492A68FFF7C8FA04E016492A6802201C
:10D37000FFF7C2FA05B0BDE8F08300BFA00E0020A1
:10D38000940E00200C6A0100536A0100606A0100DB
:10D39000980E0020742D00206F6A01007E6A010043
:10D3A000E96501008B6A0100642D00209C6A010080
:10D3B000AD6A0100B26A0100C56A01001A77010076
:10D3C000D46A0100E96A01002DE9F0412024DFF868
:10D3D00044804FF01133C8F898300C4F0C4B0125A6
:10D3E00000261D605E603D60FEF726F8D8F8AC3080
:10D3F0003E601B0406D5FEF71FF8013CE7D1284626
:10D40000BDE8F0813046BDE8F08100BF0C180C4249
:10D4100010180C42006000400A4A38B54FF04433FF
:10D42000C2F89830084B00240849094D1C600002DE
:10D4300001230B60C2F89C002B60FDF7FDFF2C6000
:10D4400038BD00BF0060004010180C4214180C4298
:10D450000C180C4238B50546FFF7B6FF044680B9F4
:10D46000084B4FF04432C3F89820074A2D02106051
:10D470005060C3F89C50054D01232B60FDF7DCFF85
:10D480002C6038BD0060004010180C420C180C4293
:10D49000F8B50520032104220023FBF7CFFC04216B
:10D4A0000A4605200023FBF7C9FC0520014604229B
:10D4B0000023FBF7C3FC274B4FF47F420821C3F83E
:10D4C000A420032004220123FBF7B8FC6420224C93
:10D4D000FDF792FF3920FFF7BDFF1420FFF7BAFFD9
:10D4E0002068001140F05400C0B2FFF7B3FF6D2078
:10D4F000FFF7B0FF2068002400F00F0040F070003C
:10D50000FFF7A8FF3820FFF7A5FFE50045F0400032
:10D5100000F0F800FFF79EFF104E2E440025775DC7
:10D52000FFF752FF10B93846FFF776FF0135082D97
:10D53000F5D10134082CE8D10C20FFF78BFF012036
:10D54000FFF788FF0620FFF785FF054B01221A70C1
:10D55000F8BD00BF00600040440100202C6B0100BA
:10D56000A10E0020FFF794BF084A00231370084A59
:10D570004FF044311360074AC2F8981006490B6017
:10D580004B60C2F89C30054A13607047A10E002022
:10D59000200F0C420060004010180C420C180C4286
:10D5A000064B10B51B7804463BB1FFF70DFF20B9C1
:10D5B0002046BDE81040FFF72FBF10BDA10E002090
:10D5C00010B5441E14F8010F10B1FFF7E9FFF9E799
:10D5D00010BD000038B50C4B04461B780D468BB1CE
:10D5E0000F2801D8012904D9084840F2B711FAF7E9
:10D5F0005FFE04EB851464F07F00C0B2BDE83840E4
:10D60000FFF728BF38BD00BFA10E00206C6B0100E2
:10D6100038B5451E012D0C4606D9BDE838400E48E8
:10D620004FF4B271FAF744BE084604F053FB1028D9
:10D6300001DD002323740F2803DC20232354013051
:10D64000F9E700202074E9B2FFF7C4FF2046BDE8E7
:10D650003840FFF7B5BF00BF6C6B010070B50E4BD3
:10D660008AB01B7805460C4616469BB1084604F066
:10D6700031FB1E2805D9094840F24511FAF718FE7A
:10D6800008E021466846324605F0E2FD2846694634
:10D69000FFF7BEFF0AB070BDA10E00206C6B010049
:10D6A0000EB403B503AA52F8041B0192FFF7D6FF8C
:10D6B00002B05DF804EB03B07047000038B50F4BC3
:10D6C00004461A781D46904216D004280ED8DFE88A
:10D6D00000F0030312120A0001280CBF00460020CC
:10D6E00003F00AF807E0FFF7EFF804E004484FF40E
:10D6F0006D71FAF7DDFD2C7038BD00BFA20E002061
:10D70000856B01000120FFF7D9BF000010B5084864
:10D7100001F04AFD074B0220C3F88000064B0124AC
:10D720001C70FEF7EBFA2046BDE81040FFF7C6BFBD
:10D73000986B0100006000404901002013B51748B4
:10D740000121FAF7EFFE01210B4603200422FBF72B
:10D7500075FB0320022101220023FBF76FFB104C15
:10D7600000221346009203200221FBF725FB2378B9
:10D770005BB2013303D10B48FDF746FD207000205A
:10D780000949FDF7AFFC002001213722FDF7BEFC5F
:10D79000002002B0BDE81040FDF708BD00C2020045
:10D7A0004A01002005D700000DD7000008B50D4B39
:10D7B0001A7852B2013203D0187840B2FDF784FDD6
:10D7C0000220FEF789FA084B0222DA67002002F0F5
:10D7D00093FF0020FFF772FFBDE80840034801F007
:10D7E000E3BC00BF4A01002000600040A76B0100BD
:10D7F0002DE9F04F0C4691B01746002A00F009823F
:10D80000AB4B1A789946002A00F0E6801B78A94EA7
:10D81000012B04D10220FFF751FFFF233370A64BE9
:10D820001A7852B2013204D01878052140B2FDF7BF
:10D8300027FD002C00F0FD80012002F05DFF96F92D
:10D8400000303A2B40F0CE80DFF8A4B207AC5D4642
:10D850000FCD0FC40FCD0FC42B6807A82360002382
:10D860000F9303F051FC954BDBF8202093F800A0B8
:10D870005D46002A18BF8AF0010A914A984612783C
:10D8800052B1BAF1000F07D019788E4A40F64C63B6
:10D89000002918BF134600E03C238B4A8B4C1168CB
:10D8A00010600B44984208BF2378EA6806BF013332
:10D8B000DBB20123237021782B690092AA6801331F
:10D8C00001926A68824802922A68DFF800B20392E5
:10D8D0006A6901F069FC2378012B40F281809BF892
:10D8E00000307C4CFA2B84BFFA238BF80030DFF831
:10D8F00000E22B6A98F800C013F1000BBEE80F009D
:10D900000FC4BEE80F000FC4DEF80030204618BF79
:10D910004FF0010B5FFA8CFC40F82039012188F8A8
:10D9200000B0CDF814C0FDF775FE0020FDF7A2FD94
:10D93000694CA9686A682B68684898F80050002DFF
:10D9400018BF20460090664801F02EFCDDF814C098
:10D95000DC452ED0594B1A781D4622B1614801F0A2
:10D9600023FC002410E06048F9E7172AC8BF002311
:10D970008DF81A3020469DF91A109DF91B200134AC
:10D98000FDF7C4FB212C14D00DF11B0220460DF134
:10D990001A01FDF7DFFB2A789DF81A30002A0CBF28
:10D9A000FF2201221344DBB25AB2002ADDDA172328
:10D9B000DEE74E4B424C1A68D71B1F60BAF1000FCE
:10D9C00001D0002323700420FFF778FE23781BB1D9
:10D9D000474B5B68312B02DCFFF7E8FE19E10027BB
:10D9E000FF2333703378414C5AB201321CD1414B82
:10D9F0001A6841F65003A2F21F529A4217D82368C0
:10DA000043F23132FB1A23F07F43A3F56643673BB1
:10DA100093420CD899F80030042B02D00320FFF772
:10DA20004DFE0023337002E0224A01331370276059
:10DA3000EFE0204602F060FE2C4B1B68FF1A2D4BD6
:10DA400027F07F471F6096F900305A1C00F0E180F4
:10DA5000A7F21F5140F6833291420AD9A7F58F579A
:10DA60000C3F974207D90220FFF728FEFF22114BF7
:10DA700093E0214600E001211B2B12DC152B58DA24
:10DA8000102B43D004DC002B3DD080F2C280B6E0E6
:10DA9000122B40D03CDB132B00F0BB80142B41D069
:10DAA000ADE0232B68D029DC1C2B134A5CD149E064
:10DAB000A20E0020480100204A010020E02C002096
:10DAC000AC0E00202CF2FFFFB80E00204901002010
:10DAD000B76B0100E42C0020416C01006D6C01006B
